{
  "contractName": "TodoList",
  "abi": [
    {
      "inputs": [],
      "payable": false,
      "stateMutability": "nonpayable",
      "type": "constructor"
    },
    {
      "anonymous": false,
      "inputs": [
        {
          "indexed": false,
          "internalType": "uint256",
          "name": "id",
          "type": "uint256"
        },
        {
          "indexed": false,
          "internalType": "string",
          "name": "content",
          "type": "string"
        },
        {
          "indexed": false,
          "internalType": "bool",
          "name": "completed",
          "type": "bool"
        }
      ],
      "name": "TaskCreated",
      "type": "event"
    },
    {
      "constant": true,
      "inputs": [],
      "name": "taskCount",
      "outputs": [
        {
          "internalType": "uint256",
          "name": "",
          "type": "uint256"
        }
      ],
      "payable": false,
      "stateMutability": "view",
      "type": "function"
    },
    {
      "constant": true,
      "inputs": [
        {
          "internalType": "uint256",
          "name": "",
          "type": "uint256"
        }
      ],
      "name": "tasks",
      "outputs": [
        {
          "internalType": "uint256",
          "name": "id",
          "type": "uint256"
        },
        {
          "internalType": "string",
          "name": "content",
          "type": "string"
        },
        {
          "internalType": "bool",
          "name": "completed",
          "type": "bool"
        }
      ],
      "payable": false,
      "stateMutability": "view",
      "type": "function"
    },
    {
      "constant": false,
      "inputs": [
        {
          "internalType": "string",
          "name": "_content",
          "type": "string"
        }
      ],
      "name": "createTask",
      "outputs": [],
      "payable": false,
      "stateMutability": "nonpayable",
      "type": "function"
    }
  ],
  "bytecode": "0x60806040526000805534801561001457600080fd5b5060408051808201909152600e81526d10da1958dac81bdd5d081d195cdd60921b602082015261004c906001600160e01b0361005116565b610210565b600080546001908101808355604080516060810182528281526020808201878152828401879052938652848152919094208451815591518051929361009e93908501929190910190610175565b5060408201518160020160006101000a81548160ff0219169083151502179055509050507f05d0fb833127fc08168556d0e7ca9554fc3f6bc843b3b7d2bf1c35aea6bab660600054826000604051808481526020018060200183151515158152602001828103825284818151815260200191508051906020019080838360005b8381101561013657818101518382015260200161011e565b50505050905090810190601f1680156101635780820380516001836020036101000a031916815260200191505b5094505050505060405180910390a150565b828054600181600116156101000203166002900490600052602060002090601f016020900481019282601f106101b657805160ff19168380011785556101e3565b828001600101855582156101e3579182015b828111156101e35782518255916020019190600101906101c8565b506101ef9291506101f3565b5090565b61020d91905b808211156101ef57600081556001016101f9565b90565b6104588061021f6000396000f3fe608060405234801561001057600080fd5b50600436106100415760003560e01c8063111002aa146100465780638d977672146100ee578063b6cb58a514610195575b600080fd5b6100ec6004803603602081101561005c57600080fd5b81019060208101813564010000000081111561007757600080fd5b82018360208201111561008957600080fd5b803590602001918460018302840111640100000000831117156100ab57600080fd5b91908080601f0160208091040260200160405190810160405280939291908181526020018383808284376000920191909152509295506101af945050505050565b005b61010b6004803603602081101561010457600080fd5b50356102d3565b604051808481526020018060200183151515158152602001828103825284818151815260200191508051906020019080838360005b83811015610158578181015183820152602001610140565b50505050905090810190601f1680156101855780820380516001836020036101000a031916815260200191505b5094505050505060405180910390f35b61019d610382565b60408051918252519081900360200190f35b60008054600190810180835560408051606081018252828152602080820187815282840187905293865284815291909420845181559151805192936101fc93908501929190910190610388565b5060408201518160020160006101000a81548160ff0219169083151502179055509050507f05d0fb833127fc08168556d0e7ca9554fc3f6bc843b3b7d2bf1c35aea6bab660600054826000604051808481526020018060200183151515158152602001828103825284818151815260200191508051906020019080838360005b8381101561029457818101518382015260200161027c565b50505050905090810190601f1680156102c15780820380516001836020036101000a031916815260200191505b5094505050505060405180910390a150565b600160208181526000928352604092839020805481840180548651600296821615610100026000190190911695909504601f8101859004850286018501909652858552909491939290919083018282801561036f5780601f106103445761010080835404028352916020019161036f565b820191906000526020600020905b81548152906001019060200180831161035257829003601f168201915b5050506002909301549192505060ff1683565b60005481565b828054600181600116156101000203166002900490600052602060002090601f016020900481019282601f106103c957805160ff19168380011785556103f6565b828001600101855582156103f6579182015b828111156103f65782518255916020019190600101906103db565b50610402929150610406565b5090565b61042091905b80821115610402576000815560010161040c565b9056fea265627a7a72315820536914cbef4a7519481a364d59c8a55b858fb6d181fbae0d6ed75c93be8a0cfc64736f6c63430005100032",
  "source": "// SPDX-License-Identifier: MIT\npragma solidity >=0.4.22 <0.9.0;\n\ncontract TodoList {\n  uint public taskCount = 0;\n\n  struct Task {\n    uint id;\n    string content;\n    bool completed;\n  }\n\n  mapping(uint => Task) public tasks;\n\n  event TaskCreated(\n    uint id,\n    string content,\n    bool completed\n  );\n\n  constructor() public {\n    createTask(\"Check out test\");\n  }\n\n  function createTask(string memory _content) public{\n    taskCount ++;\n    tasks[taskCount] = Task(taskCount, _content, false);\n    emit TaskCreated(taskCount, _content, false);\n  }\n\n}",
  "sourcePath": "/home/paulo/source/personal/blockchain/eth-todo-list/contracts/TodoList.sol",
  "compiler": {
    "name": "solc",
    "version": "0.5.16+commit.9c3226ce.Emscripten.clang"
  },
  "schemaVersion": "3.4.6",
  "updatedAt": "2022-03-29T21:37:42.388Z",
  "networkType": "ethereum",
  "devdoc": {
    "methods": {}
  },
  "userdoc": {
    "methods": {}
  }
}